{
  "_format": "hh-sol-artifact-1",
  "contractName": "MedicineTracker",
  "sourceName": "contracts/MedicineTracker.sol",
  "abi": [
    {
      "inputs": [
        {
          "internalType": "string",
          "name": "batchId",
          "type": "string"
        }
      ],
      "name": "getBatchHistory",
      "outputs": [
        {
          "internalType": "string",
          "name": "",
          "type": "string"
        },
        {
          "internalType": "string",
          "name": "",
          "type": "string"
        },
        {
          "internalType": "string",
          "name": "",
          "type": "string"
        },
        {
          "internalType": "uint256",
          "name": "",
          "type": "uint256"
        },
        {
          "internalType": "uint256",
          "name": "",
          "type": "uint256"
        },
        {
          "internalType": "string",
          "name": "",
          "type": "string"
        },
        {
          "internalType": "uint256",
          "name": "",
          "type": "uint256"
        },
        {
          "internalType": "string[]",
          "name": "",
          "type": "string[]"
        },
        {
          "internalType": "string[]",
          "name": "",
          "type": "string[]"
        },
        {
          "internalType": "string[]",
          "name": "",
          "type": "string[]"
        }
      ],
      "stateMutability": "view",
      "type": "function"
    },
    {
      "inputs": [
        {
          "internalType": "string",
          "name": "batchId",
          "type": "string"
        },
        {
          "internalType": "string",
          "name": "medicineName",
          "type": "string"
        },
        {
          "internalType": "string",
          "name": "manufacturer",
          "type": "string"
        },
        {
          "internalType": "uint256",
          "name": "manufactureDate",
          "type": "uint256"
        },
        {
          "internalType": "uint256",
          "name": "expiryDate",
          "type": "uint256"
        }
      ],
      "name": "registerBatch",
      "outputs": [],
      "stateMutability": "nonpayable",
      "type": "function"
    },
    {
      "inputs": [
        {
          "internalType": "string",
          "name": "batchId",
          "type": "string"
        },
        {
          "internalType": "string",
          "name": "scanLocation",
          "type": "string"
        }
      ],
      "name": "scanBatch",
      "outputs": [],
      "stateMutability": "nonpayable",
      "type": "function"
    },
    {
      "inputs": [
        {
          "internalType": "string",
          "name": "batchId",
          "type": "string"
        },
        {
          "internalType": "string",
          "name": "status",
          "type": "string"
        },
        {
          "internalType": "string",
          "name": "location",
          "type": "string"
        }
      ],
      "name": "updateStatus",
      "outputs": [],
      "stateMutability": "nonpayable",
      "type": "function"
    }
  ],
  "bytecode": "0x608060405234801561001057600080fd5b506113fd806100206000396000f3fe608060405234801561001057600080fd5b506004361061004c5760003560e01c80637e98b9a814610051578063a252d8a71461006d578063c2686829146100a6578063ee9ef4b0146100c2575b600080fd5b61006b60048036038101906100669190610c6b565b6100de565b005b61008760048036038101906100829190610c2a565b6101e4565b60405161009d9a9998979695949392919061103f565b60405180910390f35b6100c060048036038101906100bb9190610cd7565b61077a565b005b6100dc60048036038101906100d79190610d6e565b6108d9565b005b6000826040516100ee9190611028565b908152602001604051809103902060060160009054906101000a900460ff1661014c576040517f08c379a00000000000000000000000000000000000000000000000000000000081526004016101439061112c565b60405180910390fd5b600160008360405161015e9190611028565b9081526020016040518091039020600501600082825461017e919061123e565b925050819055506000826040516101959190611028565b9081526020016040518091039020600901819080600181540180825580915050600190039060005260206000200160009091909190915090805190602001906101df929190610b0a565b505050565b606080606060008060606000606080606060008b6040516102059190611028565b908152602001604051809103902060060160009054906101000a900460ff16610263576040517f08c379a000000000000000000000000000000000000000000000000000000000815260040161025a9061114c565b60405180910390fd5b6000808c6040516102749190611028565b90815260200160405180910390209050806000018160010182600401836002015484600301548560040186600501548760070188600801896009018980546102bb906112e0565b80601f01602080910402602001604051908101604052809291908181526020018280546102e7906112e0565b80156103345780601f1061030957610100808354040283529160200191610334565b820191906000526020600020905b81548152906001019060200180831161031757829003601f168201915b50505050509950888054610347906112e0565b80601f0160208091040260200160405190810160405280929190818152602001828054610373906112e0565b80156103c05780601f10610395576101008083540402835291602001916103c0565b820191906000526020600020905b8154815290600101906020018083116103a357829003601f168201915b505050505098508780546103d3906112e0565b80601f01602080910402602001604051908101604052809291908181526020018280546103ff906112e0565b801561044c5780601f106104215761010080835404028352916020019161044c565b820191906000526020600020905b81548152906001019060200180831161042f57829003601f168201915b5050505050975084805461045f906112e0565b80601f016020809104026020016040519081016040528092919081815260200182805461048b906112e0565b80156104d85780601f106104ad576101008083540402835291602001916104d8565b820191906000526020600020905b8154815290600101906020018083116104bb57829003601f168201915b5050505050945082805480602002602001604051908101604052809291908181526020016000905b828210156105ac57838290600052602060002001805461051f906112e0565b80601f016020809104026020016040519081016040528092919081815260200182805461054b906112e0565b80156105985780601f1061056d57610100808354040283529160200191610598565b820191906000526020600020905b81548152906001019060200180831161057b57829003601f168201915b505050505081526020019060010190610500565b50505050925081805480602002602001604051908101604052809291908181526020016000905b8282101561067f5783829060005260206000200180546105f2906112e0565b80601f016020809104026020016040519081016040528092919081815260200182805461061e906112e0565b801561066b5780601f106106405761010080835404028352916020019161066b565b820191906000526020600020905b81548152906001019060200180831161064e57829003601f168201915b5050505050815260200190600101906105d3565b50505050915080805480602002602001604051908101604052809291908181526020016000905b828210156107525783829060005260206000200180546106c5906112e0565b80601f01602080910402602001604051908101604052809291908181526020018280546106f1906112e0565b801561073e5780601f106107135761010080835404028352916020019161073e565b820191906000526020600020905b81548152906001019060200180831161072157829003601f168201915b5050505050815260200190600101906106a6565b5050505090509a509a509a509a509a509a509a509a509a509a50509193959799509193959799565b60008360405161078a9190611028565b908152602001604051809103902060060160009054906101000a900460ff166107e8576040517f08c379a00000000000000000000000000000000000000000000000000000000081526004016107df9061114c565b60405180910390fd5b816000846040516107f99190611028565b9081526020016040518091039020600401908051906020019061081d929190610b0a565b5060008360405161082e9190611028565b908152602001604051809103902060070182908060018154018082558091505060019003906000526020600020016000909190919091509080519060200190610878929190610b0a565b506000836040516108899190611028565b9081526020016040518091039020600801819080600181540180825580915050600190039060005260206000200160009091909190915090805190602001906108d3929190610b0a565b50505050565b6000856040516108e99190611028565b908152602001604051809103902060060160009054906101000a900460ff1615610948576040517f08c379a000000000000000000000000000000000000000000000000000000000815260040161093f9061110c565b60405180910390fd5b600080866040516109599190611028565b9081526020016040518091039020905084816000019080519060200190610981929190610b0a565b508381600101908051906020019061099a929190610b0a565b508281600201819055508181600301819055506040518060400160405280600c81526020017f4d616e75666163747572656400000000000000000000000000000000000000008152508160040190805190602001906109fa929190610b0a565b506000816005018190555060018160060160006101000a81548160ff0219169083151502179055508060070180600181540180825580915050600190039060005260206000200160006040518060400160405280600c81526020017f4d616e756661637475726564000000000000000000000000000000000000000081525090919091509080519060200190610a91929190610b0a565b508060080180600181540180825580915050600190039060005260206000200160006040518060400160405280600781526020017f466163746f72790000000000000000000000000000000000000000000000000081525090919091509080519060200190610b01929190610b0a565b50505050505050565b828054610b16906112e0565b90600052602060002090601f016020900481019282610b385760008555610b7f565b82601f10610b5157805160ff1916838001178555610b7f565b82800160010185558215610b7f579182015b82811115610b7e578251825591602001919060010190610b63565b5b509050610b8c9190610b90565b5090565b5b80821115610ba9576000816000905550600101610b91565b5090565b6000610bc0610bbb8461119d565b61116c565b905082815260208101848484011115610bd857600080fd5b610be384828561129e565b509392505050565b600082601f830112610bfc57600080fd5b8135610c0c848260208601610bad565b91505092915050565b600081359050610c24816113b0565b92915050565b600060208284031215610c3c57600080fd5b600082013567ffffffffffffffff811115610c5657600080fd5b610c6284828501610beb565b91505092915050565b60008060408385031215610c7e57600080fd5b600083013567ffffffffffffffff811115610c9857600080fd5b610ca485828601610beb565b925050602083013567ffffffffffffffff811115610cc157600080fd5b610ccd85828601610beb565b9150509250929050565b600080600060608486031215610cec57600080fd5b600084013567ffffffffffffffff811115610d0657600080fd5b610d1286828701610beb565b935050602084013567ffffffffffffffff811115610d2f57600080fd5b610d3b86828701610beb565b925050604084013567ffffffffffffffff811115610d5857600080fd5b610d6486828701610beb565b9150509250925092565b600080600080600060a08688031215610d8657600080fd5b600086013567ffffffffffffffff811115610da057600080fd5b610dac88828901610beb565b955050602086013567ffffffffffffffff811115610dc957600080fd5b610dd588828901610beb565b945050604086013567ffffffffffffffff811115610df257600080fd5b610dfe88828901610beb565b9350506060610e0f88828901610c15565b9250506080610e2088828901610c15565b9150509295509295909350565b6000610e398383610eb6565b905092915050565b6000610e4c826111dd565b610e568185611200565b935083602082028501610e68856111cd565b8060005b85811015610ea45784840389528151610e858582610e2d565b9450610e90836111f3565b925060208a01995050600181019050610e6c565b50829750879550505050505092915050565b6000610ec1826111e8565b610ecb8185611211565b9350610edb8185602086016112ad565b610ee48161139f565b840191505092915050565b6000610efa826111e8565b610f048185611222565b9350610f148185602086016112ad565b610f1d8161139f565b840191505092915050565b6000610f33826111e8565b610f3d8185611233565b9350610f4d8185602086016112ad565b80840191505092915050565b6000610f66601483611222565b91507f426174636820616c7265616479206578697374730000000000000000000000006000830152602082019050919050565b6000610fa6601683611222565b91507f46616b65206d65646963696e65206465746563746564000000000000000000006000830152602082019050919050565b6000610fe6600f83611222565b91507f4261746368206e6f7420666f756e6400000000000000000000000000000000006000830152602082019050919050565b61102281611294565b82525050565b60006110348284610f28565b915081905092915050565b600061014082019050818103600083015261105a818d610eef565b9050818103602083015261106e818c610eef565b90508181036040830152611082818b610eef565b9050611091606083018a611019565b61109e6080830189611019565b81810360a08301526110b08188610eef565b90506110bf60c0830187611019565b81810360e08301526110d18186610e41565b90508181036101008301526110e68185610e41565b90508181036101208301526110fb8184610e41565b90509b9a5050505050505050505050565b6000602082019050818103600083015261112581610f59565b9050919050565b6000602082019050818103600083015261114581610f99565b9050919050565b6000602082019050818103600083015261116581610fd9565b9050919050565b6000604051905081810181811067ffffffffffffffff8211171561119357611192611370565b5b8060405250919050565b600067ffffffffffffffff8211156111b8576111b7611370565b5b601f19601f8301169050602081019050919050565b6000819050602082019050919050565b600081519050919050565b600081519050919050565b6000602082019050919050565b600082825260208201905092915050565b600082825260208201905092915050565b600082825260208201905092915050565b600081905092915050565b600061124982611294565b915061125483611294565b9250827fffffffffffffffffffffffffffffffffffffffffffffffffffffffffffffffff0382111561128957611288611312565b5b828201905092915050565b6000819050919050565b82818337600083830152505050565b60005b838110156112cb5780820151818401526020810190506112b0565b838111156112da576000848401525b50505050565b600060028204905060018216806112f857607f821691505b6020821081141561130c5761130b611341565b5b50919050565b7f4e487b7100000000000000000000000000000000000000000000000000000000600052601160045260246000fd5b7f4e487b7100000000000000000000000000000000000000000000000000000000600052602260045260246000fd5b7f4e487b7100000000000000000000000000000000000000000000000000000000600052604160045260246000fd5b6000601f19601f8301169050919050565b6113b981611294565b81146113c457600080fd5b5056fea2646970667358221220eecccf86eb5ecbe543ac84c2301e925a4bd9d91441e88ca753f64609f4cdccef64736f6c63430008000033",
  "linkReferences": {},
  "deployedLinkReferences": {}
}